:020000040800F2
:1040000000060020D9500008312D01086142000847
:10401000B92C0108B12C0108B52C0108DB500008AF
:10402000DB500008DB500008DB5000086148030843
:10403000DB500008DB500008DB500008DB500008B4
:10404000DB500008DB500008DB500008DB500008A4
:10405000DB500008DB50000871AB030899AB030884
:10406000C1AB0308E9AB030811AC03086D500308AA
:1040700095500308C1500308ED5003081951030877
:10408000415103086D510308F14F030849520208DA
:10409000595202086D520208DB50000839AC03087F
:1040A00085AD030889AD03089DAD0308A1AD0308E4
:1040B000A5AD0308DB500008B9AD0308C5590308D6
:1040C000D9590308FD590308115A0308DB500008A9
:1040D000DB500008DB5000080DAD030821AD0308DC
:1040E0009DAC0308DB500008DB500008DB500008E3
:1040F000DB500008DB500008DB5000089951030832
:10410000DB500008095E0308CDAD0308DB50000852
:1041100035AD0308DB500008DB500008DB50000819
:10412000C5510308ED51030819520308455203080D
:1041300071520308DB500008DB500008815202086E
:1041400091520208A5520208DB50000801A703089B
:1041500099520308C5520308F152030849AD0308F8
:10416000DB500008DB500008DB500008DB50000883
:10417000DB500008DB500008DB500008DB50000873
:10418000DB500008DB5000085DAD030871AD03088B
:10419000DB500008DB500008DB500008DB50000853
:1041A000DB500008DB500008DB500008DB50000843
:1041B000DB500008DB500008DB500008DB50000833
:1041C000DB500008DB500008DB500008DB50000823
:1041D000DB500008DB500008DB500008DB50000813
:1041E000455B0008715F0008816C0008EDA30008C2
:1041F0008DBC000831C8000831CD000821EF00084F
:1042000061F0000845F20008A50E01085D210108D3
:10421000B5250108B12D0108195E01083195010885
:10422000C1CF0108A9DE010839E3010811350208F0
:10423000B9520208655B020819830208558D02080D
:104240006DBC020851C30208CDC5020849C9020865
:1042500029CA02084DCA020805CC02080000000065
:10426000EFF30383EFF30982EFF30881DFF814D053
:104270002DE9FE4F684601F007F8BDE8FE4F8D4678
:10428000704700001C2A0020F1EE101AA0EC200A52
:1042900001607047A0EC108A704700BF81F00041B8
:1042A00002E000BF83F0004330B54FEA41044FEA1B
:1042B000430594EA050F08BF90EA020F1FBF54EAB6
:1042C000000C55EA020C7FEA645C7FEA655C00F052
:1042D000E2804FEA5454D4EB5555B8BF6D420CDD23
:1042E0002C4480EA020281EA030382EA000083EAA6
:1042F000010180EA020281EA0303362D88BF30BD46
:1043000011F0004F4FEA01314FF4801C4CEA11319B
:1043100002D0404261EB410113F0004F4FEA0333FA
:104320004CEA133302D0524263EB430394EA050F85
:1043300000F0A780A4F10104D5F1200E0DDB02FAF4
:104340000EFC22FA05F2801841F1000103FA0EF288
:10435000801843FA05F359410EE0A5F120050EF14E
:10436000200E012A03FA0EFC28BF4CF0020C43FA7F
:1043700005F3C01851EBE37101F0004507D54FF08C
:10438000000EDCF1000C7EEB00006EEB0101B1F5DC
:10439000801F1BD3B1F5001F0CD349085FEA300022
:1043A0004FEA3C0C04F101044FEA445212F5800F2D
:1043B00080F09A80BCF1004F08BF5FEA500C50F1CA
:1043C000000041EB045141EA050130BD5FEA4C0CAD
:1043D000404141EB0101013C28BFB1F5801FE9D20A
:1043E00091F0000F04BF01460020B1FA81F308BF2D
:1043F0002033A3F10B03B3F120020CDA0C3208DDF9
:1044000002F1140CC2F10C0201FA0CF021FA02F1D3
:104410000CE002F11402D8BFC2F1200C01FA02F143
:1044200020FA0CFCDCBF41EA0C019040E41AA2BF68
:1044300001EB0451294330BD6FEA04041F3C1CDA30
:104440000C340EDC04F11404C4F1200220FA04F050
:1044500001FA02F340EA030021FA04F345EA0301FA
:1044600030BDC4F10C04C4F1200220FA02F001FABC
:1044700004F340EA0300294630BD21FA04F029463E
:1044800030BD94F0000F83F4801306BF81F48011D7
:104490000134013D4EE77FEA645C18BF7FEA655C4A
:1044A00029D094EA050F08BF90EA020F05D054EA1C
:1044B000000C04BF1946104630BD91EA030F1EBF21
:1044C0000021002030BD5FEA545C05D14000494125
:1044D00028BF41F0004130BD14F580043CBF01F518
:1044E000801130BD01F0004545F0FE4141F47001FE
:1044F0004FF0000030BD7FEA645C1ABF19461046D9
:104500007FEA655C1CBF0B46024650EA013406BFD9
:1045100052EA033591EA030F41F4002130BD00BF98
:1045200090F0000F04BF0021704730B54FF4806455
:1045300004F132044FF000054FF0000150E700BFD6
:1045400090F0000F04BF0021704730B54FF4806435
:1045500004F1320410F0004548BF40424FF0000122
:104560003EE700BF42004FEAE2014FEA31014FEA65
:1045700002701FBF12F07F4393F07F4F81F06051B4
:10458000704732F07F4208BF704793F07F4F04BFFF
:1045900041F40021704730B54FF4607401F00045DC
:1045A00021F000411CE700BF50EA010208BF70473C
:1045B00030B54FF000050AE050EA010208BF70472D
:1045C00030B511F0004502D5404261EB41014FF496
:1045D000806404F132045FEA915C3FF4D8AE4FF09E
:1045E00003025FEADC0C18BF03325FEADC0C18BF81
:1045F000033202EBDC02C2F1200300FA03FC20FAD2
:1046000002F001FA03FE40EA0E0021FA02F114441E
:10461000BDE600BF70B54FF0FF0C4CF4E06C1CEA37
:1046200011541DBF1CEA135594EA0C0F95EA0C0FA8
:1046300000F0DEF82C4481EA030621EA4C5123EA1B
:104640004C5350EA013518BF52EA033541F480114A
:1046500043F4801338D0A0FB02CE4FF00005E1FBFD
:1046600002E506F00042E0FB03E54FF00006E1FB47
:1046700003569CF0000F18BF4EF0010EA4F1FF048A
:10468000B6F5007F64F5407404D25FEA4E0E6D41CA
:1046900046EB060642EAC62141EA55514FEAC520DB
:1046A00040EA5E504FEACE2EB4F1FD0C88BFBCF557
:1046B000E06F1ED8BEF1004F08BF5FEA500E50F108
:1046C000000041EB045170BD06F0004646EA0101CE
:1046D00040EA020081EA0301B4EB5C04C2BFD4EB00
:1046E0000C0541EA045170BD41F480114FF0000EF9
:1046F000013C00F3AB8014F1360FDEBF002001F067
:10470000004170BDC4F10004203C35DA0C341BDCE0
:1047100004F11404C4F1200500FA05F320FA04F0B2
:1047200001FA05F240EA020001F0004221F00041E6
:1047300010EBD37021FA04F642EB06015EEA430E59
:1047400008BF20EAD37070BDC4F10C04C4F1200589
:1047500000FA04F320FA05F001FA04F240EA02003C
:1047600001F0004110EBD37041F100015EEA430E0D
:1047700008BF20EAD37070BDC4F1200500FA05F22D
:104780004EEA020E20FA04F301FA05F243EA0203AC
:1047900021FA04F001F0004121FA04F220EA0200BB
:1047A00000EBD3705EEA430E08BF20EAD37070BD01
:1047B00094F0000F0FD101F00046400041EB0101E1
:1047C00011F4801F08BF013CF7D041EA060195F0C3
:1047D000000F18BF704703F00046520043EB03037D
:1047E00013F4801F08BF013DF7D043EA060370476A
:1047F00094EA0C0F0CEA135518BF95EA0C0F0CD075
:1048000050EA410618BF52EA4306D1D181EA0301BA
:1048100001F000414FF0000070BD50EA410606BFB4
:104820001046194652EA430619D094EA0C0F02D1F9
:1048300050EA013613D195EA0C0F05D152EA03363E
:104840001CBF104619460AD181EA030101F000415C
:1048500041F0FE4141F470014FF0000070BD41F0A5
:10486000FE4141F4780170BD70B54FF0FF0C4CF47F
:10487000E06C1CEA11541DBF1CEA135594EA0C0F9E
:1048800095EA0C0F00F0A7F8A4EB050481EA030EEB
:1048900052EA03354FEA013100F088804FEA0333D2
:1048A0004FF0805545EA131343EA12634FEA0222A0
:1048B00045EA111545EA10654FEA00260EF0004161
:1048C0009D4208BF964244F1FD0404F5407402D2B3
:1048D0005B084FEA3202B61A65EB03055B084FEA44
:1048E00032024FF480104FF4002CB6EB020E75EB41
:1048F000030E22BFB61A754640EA0C005B084FEA69
:104900003202B6EB020E75EB030E22BFB61A7546E5
:1049100040EA5C005B084FEA3202B6EB020E75EB30
:10492000030E22BFB61A754640EA9C005B084FEAA8
:104930003202B6EB020E75EB030E22BFB61A7546B5
:1049400040EADC0055EA060E18D04FEA051545EAA4
:1049500016754FEA06164FEAC30343EA52734FEA4D
:10496000C2025FEA1C1CC0D111F4801F0BD141EAC6
:1049700000014FF000004FF0004CB6E711F4801F2B
:1049800004BF01430020B4F1FD0C88BFBCF5E06F0B
:104990003FF6AFAEB5EB030C04BFB6EB020C5FEA1B
:1049A000500C50F1000041EB045170BD0EF0004E70
:1049B0004EEA113114EB5C04C2BFD4EB0C0541EAA2
:1049C000045170BD41F480114FF0000E013C90E69F
:1049D00045EA060E8DE60CEA135594EA0C0F08BF63
:1049E00095EA0C0F3FF43BAF94EA0C0F0AD150EA62
:1049F00001347FF434AF95EA0C0F7FF425AF1046F5
:104A000019462CE795EA0C0F06D152EA03353FF41C
:104A1000FDAE1046194622E750EA410618BF52EA99
:104A200043067FF4C5AE50EA41047FF40DAF52EA6D
:104A300043057FF4EBAE12E74FF0FF3C06E000BF0A
:104A40004FF0010C02E000BF4FF0010C4DF804CD17
:104A50004FEA410C7FEA6C5C4FEA430C18BF7FEAD7
:104A60006C5C1BD001B050EA410C0CBF52EA430C05
:104A700091EA030F02BF90EA020F0020704710F185
:104A8000000F91EA030F58BF994208BF90422CBF14
:104A9000D8176FEAE37040F0010070474FEA410C0D
:104AA0007FEA6C5C02D150EA013C07D14FEA430C2B
:104AB0007FEA6C5CD6D152EA033CD3D05DF8040B9C
:104AC000704700BF8446104662468C4619466346CE
:104AD00000E000BF01B5FFF7B7FF002848BF10F1A5
:104AE000000F01BD4DF808EDFFF7F4FF0CBF0120EA
:104AF00000205DF808FB00BF4DF808EDFFF7EAFF66
:104B000034BF012000205DF808FB00BF4DF808ED20
:104B1000FFF7E0FF94BF012000205DF808FB00BF15
:104B20004DF808EDFFF7CEFF94BF012000205DF89F
:104B300008FB00BF4DF808EDFFF7C4FF34BF0120AC
:104B400000205DF808FB00BF4FEA410C7FEA6C5C77
:104B500002D150EA013C0AD14FEA430C7FEA6C5C77
:104B600002D152EA033C02D14FF0000070474FF0EF
:104B7000010070474FEA410212F5001215D211D51B
:104B80006FF47873B3EB625212D94FEAC12343F04A
:104B9000004343EA505311F0004F23FA02F018BFCC
:104BA000404270474FF00000704750EA013005D195
:104BB00011F0004008BF6FF0004070474FF0000058
:104BC000704700BF4A0011D212F5001211D20DD564
:104BD0006FF47873B3EB62520ED44FEAC12343F003
:104BE000004343EA505323FA02F070474FF00000AD
:104BF000704750EA013002D14FF0FF3070474FF05C
:104C0000000070474FEA4102B2F1E04324BFB3F520
:104C1000001CDCF1FE5C0DD901F0004C4FEAC00233
:104C20004CEA5070B2F1004F40EB830008BF20F017
:104C30000100704711F0804F21D113F13872BCBFD1
:104C400001F00040704741F480114FEA5252C2F126
:104C50001802C2F1200C10FA0CF320FA02F018BF6F
:104C600040F001004FEAC1234FEAD32303FA0CFCC2
:104C700040EA0C0023FA02F34FEA4303CCE77FEA51
:104C8000625307D150EA01331EBF4FF0FE4040F49B
:104C90004000704701F0004040F0FE4040F400004A
:104CA000704700BF7BB972B90029BEBF00204FF02A
:104CB000004106E008BF00281CBF6FF000414FF024
:104CC000FF3000F007BAADF1080C6DE904CE002901
:104CD00009DB002B1ADB00F095F8DDF804E0DDE9D4
:104CE000022304B07047404261EB4101002B1BDB03
:104CF00000F088F8DDF804E0DDE9022304B040426A
:104D000061EB4101524263EB43037047524263EB54
:104D1000430300F077F8DDF804E0DDE9022304B096
:104D2000404261EB41017047524263EB430300F0A4
:104D300069F8DDF804E0DDE9022304B0524263EBD8
:104D40004303704753B94AB9002908BF00281CBF64
:104D50004FF0FF314FF0FF3000F0BCB9ADF1080C5F
:104D60006DE904CE00F04EF8DDF804E0DDE9022341
:104D700004B07047430803F05533C01A830803F0AA
:104D8000333300F03330184400EB101000F00F30D4
:104D900000EB002000EB0040000E704707EE900A89
:104DA000F5EEC07AF1EE10FA01D400F00BB8F1EE96
:104DB000677A08B517EE900A00F004F8404261EBFC
:104DC000410108BDD0B5FFF7CDFB0C4B00220646D4
:104DD0000F46FFF71FFCFFF7F5FE0446FFF7A0FBA9
:104DE000074B0022FFF716FC02460B4630463946B9
:104DF000FFF758FAFFF7E6FE2146D0BD0000F03D70
:104E00000000F0412DE9F047089D04468E46002B36
:104E10004DD18A42944669D9B2FA82F252B101FA6E
:104E200002F3C2F1200120FA01F10CFA02FC41EA7E
:104E3000030E94404FEA1C48210CBEFBF8F61FFA03
:104E40008CF708FB16E341EA034306FB07F199429E
:104E50000AD91CEB030306F1FF3080F01F81994251
:104E600040F21C81023E63445B1AA4B2B3FBF8F02B
:104E700008FB103344EA034400FB07F7A7420AD9B2
:104E80001CEB040400F1FF3380F00A81A74240F2DA
:104E900007816444023840EA0640E41B00261DB145
:104EA000D4400023C5E900433146BDE8F0878B427A
:104EB00009D9002D00F0EF800026C5E90001304639
:104EC0003146BDE8F087B3FA83F6002E4AD18B4213
:104ED00002D3824200F2F980841A61EB03030120BD
:104EE0009E46002DE0D0C5E9004EDDE702B9FFDEA9
:104EF000B2FA82F2002A40F09280A1EB0C014FEA54
:104F00001C471FFA8CFE0126200CB1FBF7F307FBB0
:104F1000131140EA01410EFB03F0884208D91CEB53
:104F2000010103F1FF3802D2884200F2CB804346F0
:104F3000091AA4B2B1FBF7F007FB101144EA0144CF
:104F40000EFB00FEA64508D91CEB040400F1FF315E
:104F500002D2A64500F2BB800846A4EB0E0440EA4C
:104F600003409CE7C6F12007B34022FA07FC4CEA55
:104F7000030C20FA07F401FA06F31C43F9404FEA48
:104F80001C4900FA06F3B1FBF9F8200C1FFA8CFE5D
:104F900009FB181140EA014108FB0EF0884202FAB1
:104FA00006F20BD91CEB010108F1FF3A80F0888072
:104FB000884240F28580A8F102086144091AA4B22F
:104FC000B1FBF9F009FB101144EA014100FB0EFEB0
:104FD0008E4508D91CEB010100F1FF346CD28E45DF
:104FE0006AD90238614440EA0840A0FB0294A1EB70
:104FF0000E01A142C846A64656D353D05DB1B3EBCD
:10500000080261EB0E0101FA07F722FA06F3F140FC
:105010001F43C5E9007100263146BDE8F087C2F1A3
:105020002003D8400CFA02FC21FA03F3914001431B
:105030004FEA1C471FFA8CFEB3FBF7F007FB103654
:105040000B0C43EA064300FB0EF69E4204FA02F400
:1050500008D91CEB030300F1FF382FD29E422DD953
:10506000023863449B1B89B2B3FBF7F607FB163388
:1050700041EA034106FB0EF38B4208D91CEB010108
:1050800006F1FF3816D28B4214D9023E6144C91A88
:1050900046EA004638E72E46284605E70646E3E698
:1050A0001846F8E64B45A9D2B9EB020864EB0C0EA2
:1050B0000138A3E74646EAE7204694E74046D1E7B1
:1050C000D0467BE7023B614432E7304609E764445F
:1050D000023842E7704700BF02E000F000F8FEE748
:1050E00072B6374880F30888364880F30988364816
:1050F0003649086040F20000CCF200004EF63471F0
:10510000CEF200010860BFF34F8FBFF36F8F40F204
:105110000000C0F2F0004EF68851CEF200010860A7
:10512000BFF34F8FBFF36F8F4FF00000E1EE100A17
:105130004EF63C71CEF200010860062080F3148820
:10514000BFF36F8F34F0A4FF34F098F84FF0553070
:105150001F491B4A91423CBF41F8040BFAE71D4925
:10516000184A91423CBF41F8040BFAE71A491B4A1E
:105170001B4B9A423EBF51F8040B42F8040BF8E770
:1051800000201849184A91423CBF41F8040BFAE745
:1051900034F082FF34F0C6F8144C154DAC4203DAFB
:1051A00054F8041B8847F9E700F0BCFC114C124D81
:1051B000AC4203DA54F8041B8847F9E734F06ABFBD
:1051C00000060020002200200040000808ED00E05A
:1051D0000000002000060020B09A050800220020F0
:1051E0002428002028280020C4E10020E0410008F5
:1051F0005C4200085C4200085C4200082DE9F04F68
:105200002DED108AC1F80CD0C3689D46BDEC108A04
:10521000BDE8F08F002383F311882846A0470020C3
:1052200033F0D4FDFEE733F069FC00DFFEE7000059
:1052300010F8012B11F8013B012A28BF9A42F7D040
:10524000D01A7047034613F8012B002AFBD1181A15
:105250000138704710B5044620461CB154F80C3B89
:10526000013300D110BD0822012100F05DFB54F88C
:105270000C0C54F8082C14F8041C121AB2FBF1F2AE
:1052800000F052FBE8E700002DE9F041D0E90031E1
:10529000C26A5C4C12F0040FA6B018BF0B46CDE9F1
:1052A0000003D0064CBF03F1200203F16802039211
:1052B000DA699B6900210291D20903991B8802F0E7
:1052C00004020A4303924FF0E02203F47F43D2F832
:1052D000882D02F4A002B2F5A00F08BF0122A3F5A9
:1052E0003E4108BF02924B424B41049304260127E2
:1052F000454D03A82C6000F015FA44480422012112
:1053000000F012FB0422012102A800F00DFB01981D
:105310001022012100F008FB0098202201210C300E
:1053200000F002FB019804220121103000F0FCFA89
:105330000422012103A800F0F7FA01980C220121B0
:10534000143000F0F1FA0C220098012100F0ECFA80
:10535000029BDA071ED5009BDB6ADB064DD415A83D
:10536000FEF798FFDDF804C00DF1140E0CF12003D8
:105370000CF1600818685968724603C20833434547
:105380009646F7D1DCF8603025938422012105A8E8
:1053900000F0CAFA00F0B8F8FFF75CFF4FF0E02326
:1053A000D3F8003D03F47023B3F5402F0ED0184B13
:1053B00005931433069305A84FF0FF33CDE9083366
:1053C0008DF81C608DF82870FFF744FF2B68A3420E
:1053D00006D0104B05930422012105A800F0A4FA81
:1053E00000F016FA002883D0049B1BB1019A936940
:1053F0000233936126B0BDE8F08105A8FEF744FFB3
:10540000C3E700BFED55CEAC28280020ECF603081A
:1054100028ED00E0ACCE55ED08B5262031F0D6FDE4
:10542000104B1A6A42F400321A621A6A22F40032ED
:105430001A621A6A1A6C42F400321A641A6E42F442
:1054400000321A661B6E084B2E229A6000221A60E8
:105450001A685A6842F20C02DA60044B01221A7090
:1054600008BD00BF0038024000440040542A00201C
:1054700037B50E4D2A78202A15D10D4C0D482368DA
:105480000D490192184434F07BF92368019A0A48C7
:10549000203300212360297038F078F903B0BDE88B
:1054A000304034F0BFBD03B030BD00BF1C2A002027
:1054B000442A0020E0A005081E2A0020014B18689D
:1054C000704700BFFCFF1F08014B0248C01A70471D
:1054D000E0A005080000200800487047E0A005088B
:1054E0000749084B00225B1A9A4201D301207047FA
:1054F00051F8040B013001D10432F5E70020704768
:10550000E0A00508000020082DE9F74F574BDFF811
:1055100084911F68564BDFF880811B78554DDFF86A
:105520007CA107F56A5718371F4433F00BFA0224A1
:105530000646A9EB080B0EB13A2C42D9A9EB080399
:10554000B3EB070C25D4DFF858E14B4AAEEB020071
:10555000661C0C216045F6B204FB01F16BDD681896
:1055600001276A506244077242601F46DB1B73D4F6
:105570004249434FCA1B02349A424FF00C02E4B234
:1055800006FB02F262DDA91801203B44AF5008720D
:105590004B603B2C62D80C235C432B1901221A72FE
:1055A0004FF0FF322A515A60364B1B782BB1364BE5
:1055B0001B682B60354B1B686B602E4803B0BDE841
:1055C000F08F336AF06953450ABF314BF31AA3EBEE
:1055D0000A0380B1019334F04DFA019B58B1224681
:1055E0000C214A43A81801210172F169A950013424
:1055F0000D31E4B241600C2000FB04FC05EB0C0211
:10560000012145F80C6006F13C0C1172C2F804C08F
:105610006218D2B24243A8181F440172316AA950DD
:10562000023419445F45E4B24160B2D2304633F0EF
:1056300099F906467FE705EB010C4FF001086A5027
:105640008CF80880CCF804E007448FE7AB18012001
:10565000AF50187259609CE734469AE7012385F8E9
:10566000CC324FF0FF33C5E9B1339DE7442A002027
:105670001C2A0020042200202828002000000320EB
:10568000C8E1002000220020482A0020402A0020F3
:105690000022002000002008E0A0050800060020ED
:1056A000C4E100200C4B1B7810B50BB9FFF7B4FE1A
:1056B0000A490B4800230A689206FCD54A681C5C1C
:1056C000D2B2944205D10133DBB20E2BF3D10020CC
:1056D00010BD0023EFE700BF542A00200044004023
:1056E000F0F6030838B5084B1B7804460BB9FFF7F2
:1056F00093FE064DE4B26C602B685B0600D538BDA6
:1057000034F090FCF8E700BF542A00200044004029
:1057100010B5441E14F8010F00B910BDFFF7E2FFE9
:10572000F8E7000070B502680446EFF30581D92060
:105730005369C9B20DF0C2FA294B1B78A3B194E8A2
:105740000300284B83E803002748FFF7E1FF636865
:10575000B3B12648FFF7DCFF2548FFF7D9FFFFF775
:10576000A1FF2448FFF7D4FF234D2B783BB12468D9
:105770001CB1204634F07EF920B900232B7070BD97
:105780001E48E7E7204634F08DF900F214508442B9
:105790001B4E1FD2204634F085F93060204634F08D
:1057A0009BF904F5E0538342164E17D9204634F096
:1057B00093F93060144A00231360144A1370FFF702
:1057C0008FFE0028D9D034F02DFCBDE870400120B8
:1057D00034F04AB8A4F214533360DFE73360E9E7EA
:1057E0001D2A00204C2A002000F7030805F70308B3
:1057F00016F7030802F703080022002010F7030839
:10580000482A0020402A0020442A00201C2A002088
:10581000284B1A7870B542B12748FFF779FF274B1C
:105820005868003818BF012070BD254A107800283C
:105830003CD0244E244C33682448254D21781A1D31
:105840002D1A0A44AA4205D3224A4FF0FF31D161F2
:10585000202222702278D2B103F120018D4205D896
:105860001F2A9FBF1B4AD361202222701949202280
:10587000184433F085FF326823781648134400211A
:1058800020223360217037F081FF34F0CBFB336886
:105890009D4207D90F491048CB61202233F070FF99
:1058A00034F0C0FB002033F0DFFFB8E701221A70AC
:1058B000BAE700BF1D2A00205CF703084C2A00202D
:1058C00000220020442A00201C2A0020E0A0050815
:1058D000000020081E2A0020E0FF1F082DE9F843E1
:1058E000DFF83C90DFF83C8007460E460024B442C7
:1058F00001D1BDE8F88324B1230702D14846FFF760
:1059000007FF3D5D2B0905F00F0518F80300FFF7B1
:10591000E9FE18F80500FFF7E5FE0134E7E700BFF0
:1059200002F703086CF70308474B1B782DE9F74F84
:1059300007460E4690465BB1022925D0042938D08F
:10594000012902D11146FFF7C9FF4048FFF7E0FEE9
:105950003F4B1B78002B4ED03E4A3F4B0025A2EB1D
:10596000030938E037F81430ADF8043024B1620789
:1059700002D12846FFF7CCFE022101A8FFF7AEFFB7
:105980000134A045EED1E0E7304D0024F9E757F8A7
:105990002430019324B1A30702D12846FFF7B8FEB3
:1059A00004210DEB0100FFF799FF0134A045EED172
:1059B000CBE7264D0024F9E7FFF75AFD022E1DD054
:1059C000042E2CD0012E06D12378795D5A1C22702A
:1059D000224AD1540135A8450DD0214B214C1B68DA
:1059E0002278043313444B45E6D31C4B4FF0FF326F
:1059F000DA612023237003B0BDE8F08F2378DFF84D
:105A00005CA05A1C22703A780AF80320FFF730FD98
:105A100023785A1C227000220AF80320DAE7DFF804
:105A20003CB04FF0000A22783B78511C23FA0AF36D
:105A30000AF1080A0BF802302170FFF719FDBAF1DC
:105A4000200FF0D1C6E700BF1D2A002002F703088F
:105A50000022002000002008E0A005081E2A0020E7
:105A6000442A00201C2A002070B51A4C1A4E00252A
:105A700023683288D86C0368E9B25B699847174A93
:105A8000338892F900100B449BB20029338015DD56
:105A9000B3F5FA6F07D32368186C0368FF21117000
:105AA0001B680F49984701350E2DE1D12368186D09
:105AB0000368BDE870405B6805211847F3D0B3F573
:105AC0007A7FF0D82368186C0368012111701B6875
:105AD0000449E7E7FC2A0020D4240020D624002033
:105AE00080F703088CF703087047000038B50A4DAB
:105AF0000A492B68186C03681B689847084800F02F
:105B000071F800242B68D86C0368E1B2DB680134BB
:105B100098470E2CF6D138BDFC2A002098F70308D0
:105B2000582A002038B5054B1C6823680A461D68B2
:105B3000034B01462046A847002038BDFC2A002020
:105B4000F02A002010B50A4C204600F01FF8094A40
:105B50000949204635F0DEFC0CF028FD074B084AC9
:105B60001860BDE81040074907480BF061BA00BF54
:105B7000582A0020E88C0020E95A0008FC2A00205E
:105B8000695A0008ED5A0008F02A002000F11803B5
:105B900010B5402204460021184637F0F7FD9FED6E
:105BA0000C1ADFED0C0A9FED0C0A0DF051F90023E1
:105BB00084F8383084F8543004F1580006F0ECFCD6
:105BC000064B07491C60204605F046FC204610BDE8
:105BD00000008C429A99993E00004843002B002017
:105BE000A0F803082DE9F3410221054605F056FA15
:105BF00028460FF08FF806F099FD244B1E680446E6
:105C0000706D03689B6A98470B460221024600911B
:105C1000204606F0D7FCB5F98A70002F13DDD6F8C0
:105C20005480D8F8003040465B68BCB2984728B131
:105C300098F84D3013B1C92FA8BFC824306D036840
:105C400021465B68984795F989002022002102F0DF
:105C5000DDFCC4B200F088F900F048F970B9306D8D
:105C6000036801345B68E4B205219847072CF1D939
:105C7000074802B0BDE8F0410CF0EABA072CF7D8AB
:105C800085F8894002B0BDE8F08100BFFC2A002001
:105C9000B8F703082DE98048284BDFF8A490DFF817
:105CA000A4A0DFF8A4B01446012293B005460E4626
:105CB0001A704FF000080DF071F8D9F80030039316
:105CC000A0EB080241F287339A4207461FD9CDE97B
:105CD000005603985346342205A9406D0BF04AFB49
:105CE000214605A804940CF0A3FACDE900560398C8
:105CF0005B46342205A9406D0BF03CFB04940AF08E
:105D000003F9049B05AA022108F0F0F8B8460AF04E
:105D1000FBF80AF039F80AF0F7F80AF0C1FD0A2199
:105D200005A80BF0C3F9039B186D036805215B6898
:105D3000984705A80BF0C6F9BDE700BF042B00206B
:105D4000FC2A0020D0F70308C56805080FB407B582
:105D500004AA034852F8041B0192FFF79BFF00BFFF
:105D6000D8F703082DE9F3410E4C0E680F460125C4
:105D700054F8351001910846FFF764FA5FFA80F88D
:105D800001994246304638F0E3F830B946443E6067
:105D900004EBC50002B0BDE8F0810135062DE7D166
:105DA0000048F7E708FA03080B680548B3F5C06F29
:105DB0003FBF1A0ADBB20B6000EBC200704700BFA6
:105DC00008FA030830B585B0CDE9022103A9019393
:105DD000FFF7C8FF044640680168DDE901320D683D
:105DE0000399A847011E09DBFF290ADD60680368E3
:105DF0005B68984737F0BEFB222303604FF0FF300B
:105E000005E00448201AC0F3C70001EB002005B0EC
:105E100030BD00BF08FA030807B5019101A9FFF7DB
:105E2000C3FF4068019903685B68984703B05DF859
:105E300004FB00001FB5CDE9022103A90193FFF780
:105E4000B3FF40680168DDE901328C680399A0471F
:105E500004B010BD1FB5CDE9022103A90193FFF7DE
:105E6000A3FF40680168DDE90132CC680399A047CF
:105E700004B010BD07B5019101A9FFF795FF406877
:105E8000019903681B69984703B05DF804FB0000A3
:105E90001FB5CDE9022103A90193FFF785FF4068F3
:105EA0000168DDE901324C690399A04704B010BDD7
:105EB00007B5CDE9002101A9FFF754FF4068036849
:105EC000DDE900219B69984703B05DF804FB000001
:105ED00007B5019101A9FFF745FF406801990368E3
:105EE0001B6A984703B05DF804FB0000014800F00E
:105EF0009BBB00BFA42B0020014800F08DB800BF61
:105F0000A42B00202DE9F3470F4601A91546019364
:105F1000FFF74AFF00268046013DF4B2AC4257FA33
:105F200086F914DAD8F80400019903684A46D3F8D0
:105F300008A00123D047002802DC44B920460AE02B
:105F40003B570D2B03D00A2B06F10106E5D10023A8
:105F500089F80030012002B0BDE8F087014800F068
:105F600033B800BFA42B0020004870476C2B0020E2
:105F7000074B084A1A60084B084A1A60084B094A3E
:105F80001A60094B094A1A60094B0A4A1A6070479D
:105F9000A42B002088FA0308102C0020F0FB030833
:105FA000AC2B002090FB0308702B002010FD030891
:105FB000082B002008FB030813289ABF014B185632
:105FC0004D2070476CFA0308406870477047000026
:105FD00030B585B004460D494FF45C7201A80BF052
:105FE0007FF80B4B0B4A1B680392186D02940368F1
:105FF00004AA12E906009B6A01259847656001A87A
:106000000BF090F8284605B030BD00BFA830002046
:10601000FC2A0020716C000807B5074940F266327F
:1060200001A80BF05DF80CF013F801A80BF07AF85A
:1060300003B05DF804FB00BFA83000202DE9F04F4D
:10604000254C85B040F6B83102A80BF02FF8237824
:106050000BB90BF0FDFF0CF06FF8054678B9012382
:106060002370014603A80BF021F803A80BF02AF8CF
:1060700002A80BF027F8284605B0BDE8F08F0023F2
:10608000DFF858B0237010245BF8047BEFB13E6852
:1060900096F8303001934FF414720021304603F02B
:1060A000030AD6E90E8937F071FB019B79689B07DB
:1060B00048BF4AF0100A524630462CF02DFC20B959
:1060C00042464B4630462CF0F7FF013CA4B2002C70
:1060D000DAD12146C6E700BFA4300020643000209A
:1060E000F0B5D3B00E46154602F05CF9002800F07A
:1060F00093804B4940F2432268460AF0F1FF494B36
:106100001B7873B1FFF79AFF58B937F033FA0523BC
:1061100003604FF0FF3468460BF004F8204653B09C
:10612000F0BD37F027FA002303603F493046FFF700
:106130007FF820B13D493046FFF77AF878B900235F
:1061400000220024C5E90623C5E90A23C5E90E2378
:106150006C81AC812C614FF480436B60DBE70AA952
:1061600030462DF057F90128044612D1304B1F68F4
:10617000386D03681B6C984718B17B6D93F89C30A1
:1061800043B9FFF75BFF28B10AA930462DF042F969
:1061900004463CB137F0EEF90246E0B2FFF70CFFDF
:1061A0001060B6E7BDF832200A9B2B615100BDF8A4
:1061B0003030099401F03E010191C2F34511D20A39
:1061C000039203F01F020492C3F343125B0A013AE5
:1061D000503301A805920693CDE9074402910FF0D0
:1061E00081FE9DF83420C5E9060112F0010FC5E9D2
:1061F0000A01C5E90E0140F2FF1140F26D1308BF1C
:106200000B464FF47A71D2066981A9814CBF43F4E1
:10621000804343F40043A0E74FF0FF347EE700BF24
:10622000A8300020A4300020EEF903081948050822
:10623000FC2A002013B50C4602F0B4F8E8B110496E
:1062400040F2832201A80AF04BFF37F093F90023B4
:10625000036020462DF094F9044640B137F08AF9E6
:1062600002462046FFF7A8FE4FF0FF34106001A859
:106270000AF058FF204602B010BD4FF0FF34F9E796
:10628000A830002013B50C4602F08CF8E8B1104994
:1062900040F2912201A80AF023FF37F06BF90023A6
:1062A000036020462DF0ECF9044640B137F062F966
:1062B00002462046FFF780FE4FF0FF34106001A831
:1062C0000AF030FF204602B010BD4FF0FF34F9E76E
:1062D000A830002037B50C46154602F063F8F0B13F
:1062E000104940F2A12201A80AF0FAFE37F042F963
:1062F00000230360294620462DF092FA044640B15F
:1063000037F038F902462046FFF756FE4FF0FF34CB
:10631000106001A80AF006FF204603B030BD4FF020
:10632000FF34F9E7A8300020F7B50E4602F03AF83E
:10633000002844D0234940F2B92201A80AF0D0FE37
:10634000214B1B786BB1FFF779FE044648B937F053
:1063500011F90523036001A80AF0E4FE204603B00A
:10636000F0BD4FF4A8700FF05DFD04460028F2D098
:1063700031462CF0B3FF0128054612D1134B1F689C
:10638000386D03681B6C984718B17B6D93F89C308F
:106390004BB9FFF753FE30B1314620462CF09EFF3B
:1063A0000546002DD7D037F0E5F80246E8B2FFF7F2
:1063B00003FE106020460FF03BFD0024CBE70446AF
:1063C000CCE700BFA8300020A4300020FC2A002029
:1063D000F0B5CBB00D4601F0E5FF00283ED02049D6
:1063E00040F2D52201A80AF07BFE55B937F0C2F879
:1063F00016230360002401A80AF094FE20464BB047
:10640000F0BD002385F8503002A928462CF0CAFFC1
:10641000074610B99DF922303BB937F0ABF8024678
:106420003846FFF7C9FD1060E4E70DF12200FEF7E2
:1064300009FF05F15004064602460DF122012046EF
:106440000FF016FA9DF814302E4413F0100318BF05
:10645000012386F8507085F84F31CCE70446CDE72C
:10646000A830002037B50D4601F09CFF18B3134942
:1064700040F2F62201A80AF033FE5DB937F07AF84F
:10648000162303604FF0FF3401A80AF04BFE2046AC
:1064900003B030BD28462CF07BFF044628460FF0A1
:1064A000C7FC002CF0D037F065F802462046FFF715
:1064B00083FD1060E6E74FF0FF34E8E7A8300020E6
:1064C00030B585B001F06EFF48B3174940F20B328A
:1064D00001A80AF005FE154B1B7883B1FFF7AEFD4E
:1064E00068B937F047F84FF0FF34052303602546BD
:1064F00001A80AF017FE2046294605B030BD0C4819
:1065000002AA03A92CF0B6FF10B104460025EFE75C
:10651000029B03985C894443E50D6402E8E74FF071
:10652000FF342546E7E700BFA8300020A430002054
:10653000EEF9030830B585B001F034FF40B31649D9
:1065400040F2213201A80AF0CBFD144B1B7853B165
:10655000FFF774FD38B937F00DF8052303604FF0ED
:10656000FF3425460DE00E4802AA03A92CF082FF55
:106570000028F4D1029BDC6A5B89023C5C43E50D98
:10658000640201A80AF0CEFD2046294605B030BDC0
:106590004FF0FF342546F7E7A8300020A430002054
:1065A000EEF9030870B5CAB00446002302A80D46F0
:1065B0000292039336F0E4FF018AC268013142EA95
:1065C000411241695039034642EA41218068134A29
:1065D0005E681B88ADF8101002EAC022104800EA7D
:1065E0004610024342EA53032046ADF8123001F050
:1065F000D9FE044678B10B4940F2523201A80AF0A4
:106600006FFD02A928462DF011FAB0FA80F401A816
:1066100064090AF087FD20464AB070BD00F8FF0704
:10662000E0FF1F00A830002013B501F0BBFE0446B8
:1066300058B1074940F25D3201A80AF051FD0BF054
:106640007BFD044601A80AF06DFD204602B010BD96
:10665000A83000200F2810B506D936F08BFF09238B
:1066600003600024204610BD044B53F82040002C4A
:10667000F8D136F07FFF09230360F3E76430002090
:10668000022810B505D9FFF7E5FF044638B92046C2
:1066900010BD36F06FFF092303600024F7E704689C
:1066A000002CF4D136F066FF09230360EFE7000009
:1066B000F7B504461E460F46154636F05BFF00232D
:1066C0000360204601F06EFE88B31A494FF404724D
:1066D00001A80AF005FD3846FFF7D2FF044630B99D
:1066E00036F048FF182303604FF0FF3419E0022F03
:1066F000FAD9022E10D103691D442A46EB17204611
:106700002CF0DAFC054658B136F034FF0246284634
:10671000FFF752FC1060E7E7012EEED1836BEBE749
:10672000A46B01A80AF0FEFC204603B0F0BD4FF0B8
:10673000FF34F9E7A83000202DE9F3470F4616464D
:106740001D4601F02FFE00284DD0284940F28F123F
:1067500068460AF0C5FC264B1B7833B1FFF76EFC88
:1067600018B936F007FF05230EE00DB10023337092
:1067700036F000FF002404603846FFF781FF07462B
:1067800020B936F0F7FE0923036017E0A146B5F5FE
:10679000805FAA4628BF4FF4805A01AB524631466B
:1067A0003846CDF804902CF017FA804648B136F000
:1067B000E1FE02464046FFF7FFFB10604FF0FF345A
:1067C0000AE0019B43B15345CBD81C441E44A5EBC2
:1067D000030501D3002DDAD168460AF0A3FC204658
:1067E00002B0BDE8F0874FF0FF34F8E7A830002092
:1067F000A43000202DE9F04F85B005461E460C461A
:10680000174636F0B7FE00230360284601F0CAFDA4
:10681000002869D036494FF4E17202A80AF060FC02
:10682000344B1B7833B1FFF709FC18B936F0A2FEE0
:10683000052307E02046FFF723FF804630B936F0F6
:1068400099FE092303604FF0FF3446E00024DFF88F
:10685000A8B0A246B6F5805FB14628BF4FF4805974
:1068600003AB4A4639464046CDF80CA02CF076FAE8
:10687000012805461BD1DBF800300193186D026832
:10688000126C9047019B18B15A6D92F89C2072B916
:10689000186D036864215B689847FFF7CFFB30B140
:1068A00003AB4A46394640462CF058FA0546039B4E
:1068B0004B45BBD8002BB9D03DB136F05BFE02464C
:1068C0002846FFF779FB1060BDE74B451C441F4489
:1068D000A6EB030601D3002EBCD102A80AF022FCCD
:1068E000204605B0BDE8F08F4FF0FF34F8E700BF59
:1068F000A8300020A4300020FC2A0020022838B54F
:10690000044606D9FFF7A6FE054638B94FF0FF3416
:1069100012E036F02FFE09230360F7E7006808B1A4
:1069200033F042F8686833F03FF8044B002243F834
:106930002420284633F038F8204638BD6430002043
:1069400037B50D4601F02EFD50B317494FF4B8721C
:1069500001A80AF0C5FB36F00DFE002303602846AF
:10696000FFF778FE38B94FF0FF3401A80AF0DAFBE0
:10697000204603B030BD2846FFF782FE0028F2D043
:106980002CF08CFB04462846FFF7B8FF002CECD017
:1069900036F0F0FD02462046FFF70EFB1060E2E7FE
:1069A0004FF0FF34E4E700BFA830002013B50C46D9
:1069B00001F0F8FC38B315494FF4F97201A80AF058
:1069C0008FFB36F0D7FD002303602046FFF742FE21
:1069D00038B94FF0FF3401A80AF0A4FB204602B0FA
:1069E00010BD2046FFF74CFE0028F2D02CF0A0FA94
:1069F00004460028EFD036F0BDFD02462046FFF7E2
:106A0000DBFA1060E5E74FF0FF34E7E7A83000203D
:106A10002DE9F74F8946904601F0C4FC002800F0AC
:106A2000C480634940F2251201A80AF059FB614B6A
:106A30001B787BB1FFF702FB60B936F09BFD0523A5
:106A400003604FF0FF3401A80AF06CFB204603B04E
:106A5000BDE8F08F36F08EFD0023036008F00303DD
:106A6000022B17D0002B0CBF0125022518F4007F44
:106A700006D018F4806F14BF45F0080545F01005E6
:106A8000DFF838A100240134102C05D136F072FD56
:106A9000172310E00325E9E7022CF4DD5AF824302F
:106AA000002BF0D10121082032F07AFF064630B9E0
:106AB00036F060FD0C2303604FF0FF341EE001212F
:106AC0004FF4147032F06CFF074618B9304632F0BC
:106AD0006BFFEDE74846FEF7B5FB013032F030FFC3
:106AE000834618B9384632F05FFFEFE7494637F082
:106AF00005FA4AF82460C6F804B037602046FFF76C
:106B0000A9FD18B92046FFF7F9FE9AE72046FFF7DE
:106B1000B7FD074630B92046FFF7F0FE36F02AFDF4
:106B200009238DE75FFA85FA524649462BF0F4FEB9
:106B30000128064618D1204B1D68286D03681B6C80
:106B4000984718B16B6D93F89C3073B9286D036842
:106B500064215B689847FFF771FA30B152464946A5
:106B600038462BF0D9FE06463EB136F003FD02460C
:106B7000F0B2FFF721FA1060C4E718F0080F3FF4F5
:106B800062AFD7E9042338462CF096FA0546002870
:106B90003FF459AF36F0EEFC02462846FFF70CFAF8
:106BA000106038462CF07AFAACE74FF0FF344DE72E
:106BB000A8300020A4300020FC2A002064300020EF
:106BC000F7B54368012B04461BD123494FF461728A
:106BD00001A80AF085FA0223636009F095F91F4ABB
:106BE000052107F09DF91E4B1F68786D0368002290
:106BF0001B6D4FF400719847054620B901A80AF0B3
:106C000091FA03B0F0BD02464FF40073002115481D
:106C10002CF058FF0646786D03684FF400725F6DE4
:106C200029460023B84766B90323636009F06CF96D
:106C30000D4A052107F074F90BF00AFA0BF07CFA03
:106C4000DCE70423636009F05FF9084A3346052155
:106C500007F066F9F0E700BFA830002038FA030813
:106C6000FC2A00204AFA03084DFA030858FA0308E0
:106C7000FFF7A6BF10B504460FF0DAF8204610BDA6
:106C800010B5054C20460BF0CDF92046034A0449C7
:106C9000BDE8104034F03EBCA8300020E88C002055
:106CA000CD5F0008002070474FF0FF3070470000B4
:106CB0004FF0FF3070470000002070470020704701
:106CC0004FF0FF30704700004FF0FF30704700007A
:106CD00000200021704700000020002170470000C4
:106CE0000020704701207047704700000020704767
:106CF0000020704703292DE9FF41054688461746C5
:106D00001C4604D8182606FB0106337943B936F031
:106D100031FC092303604FF0FF3004B0BDE8F0817F
:106D2000B368002BF3D00CF039F8D6F80CC0B06182
:106D300047F23D63ADF80430BCF1000F1DD1092CC2
:106D40001BD9386879683A8901AB03C31A80BDF84A
:106D50000C304FF6FF7293420FD0B0682622534397
:106D600082680A33934208D99A1A61460EF0F2FDFE
:106D700018B936F0FFFB1C23CCE7182303FB08539C
:106D8000B068DB6882682344934205D99A1A0021CF
:106D90000EF0E0FD0028ECD0182101FB0855B36887
:106DA0001868EB6822461844394636F0C7FCEB6891
:106DB0002344EB602046B0E7032938B504D81824F3
:106DC00004FB0104257935B936F0D4FB09230360AF
:106DD0004FF0FF3038BD012B08D0022B09D003B98A
:106DE000E260182303FB0100C068F3E7E3681A447C
:106DF000F6E736F0BFFB1623E9E7000038B50D468D
:106E000028460D491446FEF713FA10B920800120D8
:106E100006E00A492846FEF70BFA10B90120208047
:106E200038BD07492846FEF703FA10B9022323802C
:106E3000EDE70020F4E700BFE0FA0308ECFA0308EE
:106E4000F6FA030813B514460DF10602FFF7D6FF54
:106E500038B936F08FFB022303604FF0FF3002B0E9
:106E600010BD58220021204636F090FC4FF48013CC
:106E700023610020F3E70000012A13B50C461946F0
:106E80000ED0022A12D0BAB9019303F0A9FA98B130
:106E900001990A46A1B202B0BDE8104003F06CBAF5
:106EA000A0B202B0BDE8104008F0E6BAA0B202B04D
:106EB000BDE8104008F018BC002002B010BD000072
:106EC0002DE9F04F03298DB00646894617461D4629
:106ED00006D84FF0180808FB010898F8043043B9A9
:106EE00036F048FB092303604FF0FF300DB0BDE8DA
:106EF000F08FD8F80840002CF2D10BF04FFFD8F8F3
:106F00000C10C8F81800092921D847F23D630394F2
:106F1000ADF80830C1F10A04B8F81430ADF80A3001
:106F2000AC42D8F81030ADF8103028BF2C4602AB78
:106F300019442246384636F001FCD8F80C302D1B97
:106F40002344C8F80C3001D12046CFE7274418234A
:106F500003FB09630093DB682822002102A8A3F148
:106F60000A0836F013FC26234FF0000BB8FBF3FAA7
:106F700003FB1A8AEDB1009A2621928AB8FBF1F13F
:106F800002AB3046FFF778FF98B1CAF12602AA4259
:106F900002AB28BF2A4603EB0A013846019236F0BD
:106FA000CDFB019A4FF0000A1744AD1A9344904468
:106FB000E0E7182101FB096604EB0B00F3685B4472
:106FC000F36093E7012908B509D0022910D011B95F
:106FD00003F006FA08B9002000E0008E08BD0BF0AF
:106FE00029FF0028F7D00BF023FFB0F85C00F5E78D
:106FF00005F018FC0028EED00079EFE72DE9F74FF7
:1070000016460DF106020746FFF7F8FE30B936F0D6
:10701000B1FA022303604FF0FF3850E00BF0BEFEE0
:10702000002506F0030681463C4647F23052AB4647
:10703000A369A9EB03039342A84610D9D4F808A08A
:1070400084F804B0BAF1000F07D050460EF0A4FC4B
:1070500050460EF0EDFE47F23052C4F808B016B1BB
:10706000A368002BD7D194F804A0BAF1000F08D080
:107070000135042D04F11804DAD136F07BFA172318
:10708000C8E7182404FB0574BDF80610C4F80CA06A
:1070900001232371A1823846FFF794FF206146B196
:1070A00010200EF0BFFE064618B11022514636F0F1
:1070B0006DFB182000FB0575A660C5F818904046CA
:1070C00003B0BDE8F08F00000A44914205D011F8EA
:1070D000013B002BF9D000207047012070470000D1
:1070E0002DE9F0414B689D68092D96B0804604D883
:1070F0000024204616B0BDE8F0811C682068616855
:10710000228902AB03C31A80BDF8082047F23D6311
:107110009A42EDD126230A3DB5FBF3F5BDF81030B8
:10712000AB42E5D10A3427460026AE4209D03946A3
:1071300026224046FFF7C8FF26370028D8D101365F
:10714000F3E703F04DF906460028D1D029494FF462
:10715000C27201A809F0C4FFBDF80C30DB0702D4ED
:10716000304601F0FBFE0027AF4241D0282200212B
:107170000CA836F00BFB07A80EF038FC23460CAA2F
:1071800004F1200E186859689446ACE803000833EF
:1071900073456246F6D11868CCF800009B88ACF8BD
:1071A000043005A90CA802F043F8E0B9BDF8163088
:1071B000B12B04D1BDF81C30AB4214D29BB1BDF849
:1071C0000E10338E394489B28B4207D105A930465F
:1071D00001F0AEFF38B101372634C5E705AA3046C5
:1071E00001F0BEFFF6E7002401A809F09BFF80E74D
:1071F0000124F9E7C4300020032970B504D818220F
:1072000051434418227932B936F0B4F909230360A6
:107210004FF0FF3004E000222271A2680AB900207A
:1072200070BD04310144FFF75BFFA66805462EB12F
:1072300030460EF0B1FB30460EF0FAFD0023A3609D
:10724000002DECD136F096F91623E0E70329F7B5C7
:1072500006460D4617461C4604D8182303FB0103B7
:107260001A793AB936F086F9092303604FF0FF30F6
:1072700003B0F0BDD3F818C0BCF1000FF2D0D9684C
:1072800046F21B72ADF80020C1B1182202FB056264
:107290009069D36882682344934227D8182303FB5C
:1072A00005652246AB691868EB683946184436F024
:1072B00045FAEB682344EB602046D9E7052CE4D976
:1072C0003868009080B2B7F804E0DCF80830ADF818
:1072D00004E09042D9D1BDF804209A42D5D9D21AFF
:1072E00060460EF037FB0028CFD1BFE79A1A002185
:1072F0000EF030FB0028D1D1B8E70000032938B5E3
:1073000004D8182404FB0104257935B936F032F984
:10731000092303604FF0FF3038BD012B08D0022B4A
:1073200009D003B9E260182303FB0100C068F3E74A
:10733000E3681A44F6E736F01DF91623E9E7000082
:107340002DE9F04F2DED028B8FB054681F460023BE
:107350008A4615468DF83430ACB914870DF11B01FF
:1073600007AA284604F0CAFBBAF80420A3B29A423E
:10737000804612D9013400B307AA0DF11B0128463B
:1073800004F0EAFBF0E7138F013313870DF11B01C3
:1073900007AA284604F0E0FB8046BAF80630B8F1A8
:1073A000000F0AD0ABB12A8F9A4212D30026304682
:1073B0000FB0BDEC028BBDE8F08FBAF80660002E6E
:1073C000F4D12C8F04F0E0FB8442EFD004F092F96A
:1073D000EDE70123009309AA10234046294603F054
:1073E0007FFB05F1080308EE103AE81D09AB002207
:1073F000D1B29B46059113F9014B10F9011FA1422F
:1074000002D101320029F3D15846FDF71BFF10F0DD
:10741000FF03049307D1059B013BDBB205930123D6
:107420000BF1FF3B04939AF80130039363B19DF88D
:107430001B10404603F01EFEDDED070A01F018F8B0
:1074400080F00100C3B203939DF81B0003F068FABB
:10745000049B03F10209039B002B14BF0646002680
:1074600050FA89F2164401280446F6B215D96D681F
:10747000BAF8022006353544B5FBF2F102FB11558E
:107480005DB1854209D2451BEDB238462A4600213E
:1074900036F07CF92E442F44F6B2039B9DF81B5026
:1074A00045EA0312049B3A705A1E059B43EA0212F6
:1074B0007A705946049AB81C36F040F92246414683
:1074C00007EB090036F03AF9039BB3B1013D042DF7
:1074D00013D8DFE805F01803181F1F00DDED077A49
:1074E000FDEEE77A17EE903AADF8203004EB090094
:1074F000224608A9384436F021F918EE100A09A9E5
:1075000036F0FCFC53E7DDED077AFDEEE77ACDEDD2
:10751000087AEBE704EB0900224607A9EAE7000036
:107520002DE9F04F064689B00F461C46154642B974
:107530003C222946184636F029F9012009B0BDE859
:10754000F08F5B68934204D93C220021204636F03C
:107550001DF994F81990B9F1000F1AD0D4F804A0CD
:10756000A5EB0A08C84528BFC8465FFA88FBD9457D
:1075700008D008F11A01A9EB0802214404F11A000D
:1075800036F0EAF8A9EB0B0908EB0A0384F8199026
:10759000636004F11A086368AB421BD0A5EB030AD1
:1075A00022466B4639463046FFF7CAFE90B1824507
:1075B000D14628BF8146824508D2A0EB0A03DAB241
:1075C00062760DEB0901404636F0B8F863684B442B
:1075D0006360E0E76068431B58425841AEE7000033
:1075E0002DE9F04F2DED028B03298BB080468946A3
:1075F00092461D4604D818234B43C61832795AB90F
:1076000035F0B8FF092303604FF0FF3420460BB07C
:10761000BDEC028BBDE8F08F0433C31808EE103ABE
:10762000B3691BB135F0A6FF1623ECE7F3880BB95D
:1076300005B1F580F3880BB1AB42F3D1182202FB00
:10764000098213693BB1D2689342C0F0AB809B1AA8
:107650009D4228BF1D46182303FB0983DB68052BC9
:1076600000F2A28046F21B73ADF8083004F08CFAE9
:107670003389ADF80C009842D4D9C01A738980B20E
:10768000ADF80A001BB1984288BFADF80A30182344
:1076900003FB0983D9687379C1F10604AC4228BFA2
:1076A0002C461BB146F21C73ADF80830E4B202ABB5
:1076B00022461944504636F041F8182303FB09834B
:1076C0002D1BDA682244DA60A0D0A244182303FB01
:1076D000098301275E69DA687068063A0023022F81
:1076E00006D0316C914203D381424FF002075DD343
:1076F000C3EB031306EB83067368934208D018EEBE
:10770000101A33464046FFF70BFF00283FF47EAFC8
:10771000002D3FF47BAF777E2FB3AF4228BF2F46BB
:10772000FBB2009306F11A03194650463A460193FC
:1077300036F004F896F819B0009B9B45A5EB0705B9
:10774000BA4408D0019B07F11A01ABEB07023144A0
:10775000184636F001F8009BABEB030B736886F814
:1077600019B03B44736006F11A0308EE903A7DB1FC
:1077700018EE101A02AB32464046FFF7E1FDE8B9B9
:10778000182303FB0983DA6819693A4489B91A6135
:10779000182101FB09883C44D8F80C303B44C8F858
:1077A0000C3033E7002556E700248FE70846012315
:1077B00095E78A4294BF1A611961E9E7A8428346B6
:1077C00028BFAB46A84208D9401BC2B202AB18EE94
:1077D000900A7276591935F0B1FF5A46504602A9FF
:1077E00035F0ACFF726802EB0B03A5EB0B05DA4436
:1077F0005F447360BBE7000010B50C4609220849DE
:10780000204636F0A5FB38B994F9090030B1A0F153
:107810003F035842584110BD0020FCE70120FAE721
:1078200060FB03082DE9F84F074689461446FFF729
:10783000E3FF40B935F09EFE022303604FF0FF36B0
:107840003046BDE8F88F04F003044FF00008182319
:107850003A1D03FB08F54646515D002900F086807D
:10786000032E08F10108F4D135F084FE1723E4E774
:10787000182303FB08734FF0000A0122C3F80CA081
:10788000C5E9012AC3F810A0C3F818A09CB11020C4
:107890000EF0C8FA044618B11022514635F076FFB2
:1078A000182303FB08739C612CB93B6841465B6855
:1078B0003846984765E03F21484636F011FBDFF82F
:1078C000D0A0DFF8D0B00446002CB9D094F9003035
:1078D000002BB5D004F101092C490622484636F0A8
:1078E00037FB014680B907340A22204636F08EFC69
:1078F0004FF6FE7398422CD828812621204636F078
:10790000EFFA81464C46DFE751460622484636F0FC
:107910001FFB014650B907340A22204636F076FC98
:107920004FF6FE73984214D86881E6E759460D2257
:10793000484636F00DFB01460028E3D10E340A22FA
:10794000204636F063FC012803D800F0010068717E
:10795000D3E7182000FB0877786908B10EF06EFABB
:1079600000232B7135F006FE162366E73D44002CFC
:107970007FF47EAF78200EF05FFA686100287FF414
:1079800077AF35F0F7FD0C2357E700BF6CFB03081A
:1079900073FB03087AFB030810B51446FFF72CFFAE
:1079A00030B935F0E7FD022303604FF0FF3010BD22
:1079B00058220021204635F0E9FE04F0E5F80C23BA
:1079C000584320610020F2E72DE9F04F00251570A3
:1079D00093464A699368052B91B040F2B9801468C8
:1079E0002068A2880490ADF8142080B246F21B7281
:1079F000904240F0AD80BDF814209A4240F0A8803B
:107A00000D22294607A80634069535F0BFFEBDF8BD
:107A10001220ABB29A4240F29F80277807F00F06FF
:107A20003F0940F0958094F8018008F00F0A4FEA72
:107A3000181808F101030AEB0309B9F1100F0193BB
:107A400000F38680524606A90BA835F077FE019B0D
:107A50001A460BABA11C03EB0A0035F06FFE10AB0E
:107A600099440DF12C0E09F8147CBEE80F000DF1BD
:107A7000180CACE80F00DEF800308CF8003008F18C
:107A800003080DF10E020DF10D010BA88DF80D701C
:107A9000444403F0DFF848B9012E02D10134013526
:107AA000B5E7022E0CBF02340434F8E7BDF80E30FF
:107AB0009DF80D1013F004031ED0012904D190F994
:107AC0000070B7FA87F77F098E4217D1032E15D1C0
:107AD00054F8043B03600022114603F08FFE002F90
:107AE000DDD001238BF800301C4B1B68186D036838
:107AF00064215B689847D2E71F46E5E7012E0FD166
:107B0000237817B11F1E18BF01275BB200EE103A91
:107B1000B8EEC00A019003F021FB01340198DAE7C6
:107B2000022E09D134F9023B00EE103AB8EEC00A39
:107B3000019003F013FBF1E7032E02D154F8043B4C
:107B4000F2E7042EC7D154F8043B00EE103AEFE7F9
:107B5000002011B0BDE8F08F0120FAE7FC2A0020D8
:107B600073B505460E460524013C14F0FF040CD005
:107B70000DF1070231462846FFF726FF18B19DF8A0
:107B80000730002BF0D102B070BD0120FBE70000F0
:107B90000329F8B504460D4604D818216943461850
:107BA00033793BB935F0E6FC092303604FF0FF372A
:107BB0003846F8BDB369DBB90027002333711826B6
:107BC00006FB0543586908B10EF038F906FB054677
:107BD00000237361B6692EB130460DF0DDFE3046EC
:107BE0000EF026F9182101FB05440023A361DFE70D
:107BF00004310144FFF7B4FF0028DDD135F0BAFCB1
:107C0000162303604FF0FF37D7E7000000207047CE
:107C100000200021704700000020704708B535F0B3
:107C2000A9FC1E2303604FF0FF3008BD032938B5BF
:107C300004D80C2404FB0104656835B935F09AFCBE
:107C4000092303604FF0FF3038BD012B08D0022B11
:107C500012D063B9002A05DA35F08CFC1623F0E760
:107C6000E3681A44A3689A4294BFE260E3600C237D
:107C700003FB0100C068E7E7A368E360F7E70000E3
:107C800008B535F077FC1E2303604FF0FF3008BDC8
:107C9000486804F089B900000329F8B50646104683
:107CA00004D80C2202FB0166776837B935F062FC14
:107CB000092303604FF0FF30F8BDD6E902516C1A7A
:107CC0009C4228BF1C4634B12246394435F036FD6B
:107CD000F3682344F3602046EEE7000000F134032C
:107CE0002DE9F341CE1A1D4BF710B6F5467F8046BD
:107CF00003FB07F705D935F03DFC09230360002499
:107D000026E04FF4847303FB070706F138010144B2
:107D1000786B04F04BF90446D0B1796B01910846B9
:107D2000FDF790FA019905460246204636F010F913
:107D30000028E4D163572F2B0ED10135611906F1CC
:107D40003A04444487F83901FF22204636F014F9FA
:107D5000204602B0BDE8F0810446F9E7E1830F3E1A
:107D600070B506460C200D460EF05CF8044670B166
:107D700086600146284604F0C7F80546606030B9C1
:107D8000204600F023FB20460EF052F82C462046F9
:107D900070BD000012F00302F8B50446084606D094
:107DA00035F0E8FB1E2303604FF0FF350FE00C2396
:107DB000211D03FB02F615468F5957B1032D02F121
:107DC0000102F6D135F0D6FB1723ECE7E760284631
:107DD000F8BD06F10801214404F096F834446060CF
:107DE0000028F3D135F0C6FB0223DCE700F13403B1
:107DF000C91A0D4B10B5B1F5467F4FEAE10403FBFC
:107E000004F406D935F0B6FB092303604FF0FF30C8
:107E100010BD4FF4847303FB0404606B31F0C4FDA8
:107E200000206063F4E700BFE1830F3E13B508460E
:107E300001A9144604F068F838B935F09BFB022319
:107E400003604FF0FF3002B010BD04F0ADF85822CF
:107E50000021204635F09AFC019B23610020F2E7C7
:107E600070B505460023084605F134064FF48471C9
:107E700001FB03F4325942B10133042BF8D135F040
:107E800079FB17230360002007E02E19328731F0B9
:107E9000DDFD706308B13434281970BD032910B5B5
:107EA00004D80C2404FB0104606830B935F062FB8F
:107EB000092303604FF0FF3010BD04F075F8002077
:107EC0006060F9E74FF0FF3070470000032910B5FC
:107ED00004D80C2404FB0101087930B935F04AFBC1
:107EE000092303604FF0FF3010BD012B0AD0022B95
:107EF00011D02BB9CB689B689342D4BF8B608A604A
:107F00008868F1E78B681A44CB689B689A4294BFF3
:107F10008A608B60F4E735F02DFB1623E1E7000063
:107F200091F9003010B533B135F024FB0223036022
:107F30000024204610BD4FF482700DF073FF0446FC
:107F40000028F6D135F016FB0C230360F1E70000A2
:107F5000032970B50646104604D80C2202FB0166C0
:107F6000327932B935F006FB092303604FF0FF3058
:107F700070BDD6E9021295686C1A9C4228BF1C4657
:107F800013682246194435F0D9FBB3682344B36023
:107F90002046EDE738B50B680A2B0C464FF000057C
:107FA0000CD881F803510D1D0549FF2251F823100B
:107FB00028460DF05DFC236801332360284638BD58
:107FC000DCFC0308032970B504460D4604D80C23D5
:107FD00003FB01031A7932B935F0CCFA09230360A7
:107FE0004FF0FF3070BDDE6800221A712EB13046AE
:107FF0000DF0D2FC30460DF01BFF0C2101FB0544B7
:108000000020E060EEE7000008B5084631B935F021
:10801000B1FA162303604FF0FF3008BD0DF008FFE2
:108020000020FAE770B5084E0D46002456F8041BF0
:108030002846FDF7FDF808B960B270BD01340B2C7D
:10804000F4D14FF0FF30F8E7DCFC03082DE9F04FE6
:1080500012F0030485B005460E4604D035F08AFAC6
:108060001E23036024E14FF00C0A031D0AFB04F9F0
:10807000274613F809B0BBF1000F00F00B81032F66
:1080800004F10104F2D135F075FA1723E9E731461E
:108090002846FFF7C7FF00280BDA40460DF07CFCAE
:1080A00040460DF0C5FEC9F80CB035F063FA022366
:1080B000D7E781493046FDF7BBF830B97F4B1B68E5
:1080C000586D03684146DB6E98477D493046FDF7A1
:1080D000AFF838B904F044FC0C2303FB0453D9680F
:1080E00004F0BEFB77493046FDF7A2F848B9734B60
:1080F0001B68586D0C23026803FB0453126FD96888
:10810000904771493046FDF793F848B96B4B1B68AF
:10811000586D0C23026803FB0453526FD9689047D3
:108120006A493046FDF784F850B9644B1B68586DB6
:108130000C23026803FB0453D2F88020D9689047CF
:1081400063493046FDF774F850B95C4B1B68586DB5
:108150000C23026803FB0453D2F88420D9689047AB
:108160005C493046FDF764F838B90CF007FE0C2383
:1081700003FB0453D9680CF0EBFD57493046FDF77B
:1081800057F828B155493046FDF752F868B9012033
:108190004A4B1B6803EB8000406E30B10C23026831
:1081A00003FB0453526AD96890474D493046FDF7A6
:1081B0003FF848B9414B1B68586D0C23026803FB1C
:1081C0000453926FD968904746493046FDF730F81E
:1081D00008BB0C2303FB0453D3F80C80374BD3F8B4
:1081E00000A0DAF854000368D3F89830984701905B
:1081F000DAF854000368D3F8943098470090DAF81E
:1082000054000368D3F894A0D047DDE90021034669
:1082100040460DF0CBFB34493046FDF709F898B9DC
:10822000264B1B68CDE90200D86B036803AA9B6943
:1082300002A9984740B10C20039B029900FB04500F
:108240001A46C0680DF0B2FB0C2606FB0456F36814
:108250009A68AAB91B7B002B14BF0C27022735F0A4
:1082600089F90760F6682EB130460DF095FB30466F
:108270000DF0DEFD0C2000FB04540023E36017E04A
:108280000023C9F80830012389F80430384605B0C6
:10829000BDE8F08F10200DF0C5FDA9448046C9F857
:1082A0000C0000287FF4F3AE35F064F9C0F800A0AC
:1082B0004FF0FF37EAE700BF48FC0308FC2A002024
:1082C00054FC03085EFC030866FC030871FC030809
:1082D0007BFC030886FC030892FC0308A1FC03084E
:1082E000B0FC0308C0FC0308CFFC030870B50446CB
:1082F00016460D4619B112B191F900303BB935F06F
:1083000039F9162303604FF0FF34204670BD582220
:108310000021304635F03AFA2846FCF793FF012851
:1083200095F9003003D12F2B04D10024EDE72F2B3A
:1083300008BF013529462046FFF774FE002803DAFE
:1083400035F018F90223DDE70D492846FCF770FFE8
:10835000044618B94FF480433361D6E709492846EB
:10836000FCF766FF044640B9074B1B68586D03686D
:10837000D3F8943098473061C7E7044B3361D4E7B2
:10838000CFFC0308C0FC0308FC2A0020A0860100E3
:10839000486810B50C4618B131F006FB0023636045
:1083A00010BD000008B5084B1B685A6D92F89C2060
:1083B0003AB1186D03681B6C984780F00100C0B299
:1083C00008BD0120FCE700BFFC2A002010B50446D0
:1083D000806818B1036821465B6D9847204610BD40
:1083E0002DE9F043036899B09B6902AA05468846C7
:1083F0009847074620B10024204619B0BDE8F08315
:108400000C200DF00FFD04460028F4D0856006987E
:1084100031F096FA064630B92046FFF7D7FF2046DE
:108420000DF006FDE7E72B684146D3F800903A4689
:108430003B462846C847431C014603D1304631F02D
:10844000B3FAE9E72B680190D3F80880069B32461F
:108450002846C047069B019998422B6828465B68CE
:1084600001D09847EAE79847069BC4E90036C3E77E
:1084700070EE600ADFED057AF0EEE00AF4EEE70A4E
:10848000F1EE10FA4CBF01200020704700000034CC
:10849000B4EE400AF1EE10FA0FD6B7EE007AB4EE61
:1084A000C70AF1EE10FA0BDABFEE007AB4EEC70A93
:1084B000F1EE10FA07D933F08BBA9FED040A70473A
:1084C0009FED030A70479FED030A7047000000000C
:1084D000DB0FC93FDB0FC9BF08B533F0B9FBDFEDD8
:1084E000057AB4EE400AF1EE10FA68BFB0EE670A02
:1084F00008BD00BF0000000008B52DED028B9FED08
:10850000088AF0EE480A33F099FAB5EEC00AF1EEA7
:1085100010FA48BF30EE080ABDEC028B08BD00BF60
:108520000000B44308B5FFF7E7FFDFED067AB4EECD
:10853000E70AF1EE10FAC4BFDFED037A30EE670A06
:1085400008BD00BF000034430000B44308B52DED62
:10855000028B9FED088AF0EE480A33F06FFAB5EE11
:10856000C00AF1EE10FA48BF30EE080ABDEC028BEB
:1085700008BD00BFDB0FC94008B5FFF7E7FFDFED1F
:10858000067AB4EEE70AF1EE10FAC4BFDFED037A23
:1085900030EE670A08BD00BFDB0F4940DB0FC94062
:1085A00010B5B4EE400AF1EE10FA2DED028B044640
:1085B000B0EE608AF0EE418A0FD713F095F9A2B2BF
:1085C0004FF4806113F07CF938EE288AB6EE000A89
:1085D00028EE000ABDEC028B10BDB4EEE00AF1EE0D
:1085E00010FA07D4B4EE410AF1EE10FAC8BFB0EEAB
:1085F000410AEFE7B0EE600AECE70000884203D3DF
:108600009042014628BF114608467047884203DB66
:1086100090420146A8BF114608467047094A1368B0
:1086200049F2690099B21B0C00FB01331360064B41
:10863000186844F2506182B2000C01FB020018601D
:1086400080B27047DC240020D824002008B59FEDBC
:10865000071ADFED070A4FF4FC70FFF7A1FFBDEE2C
:10866000C00A10EE103A18B208BD00BF00FEFF4667
:10867000000000C708B59FED071ADFED070A40F2BA
:108680000220FFF78DFFBCEEC00A10EE103A98B240
:1086900008BD00BF00FF7F470000000091ED011AF8
:1086A00090ED077A90ED010AD0ED040AD1ED007A41
:1086B00090ED006AD0ED036A21EE000A61EE200A17
:1086C00021EE071A90ED067AA6EE270A88B0E7EEAB
:1086D000A60AA7EE871A90ED056AD1ED027A90ED11
:1086E000027AD0ED086AE7EE860AA7EEA61AA7EE90
:1086F000270A08B0704700BF10B52DED068BB0EE0D
:10870000408AB0EE600A0446F0EE41AAB0EE609AEC
:1087100033F026F8F0EE408AB0EE490A33F01EF945
:10872000F0EE409AB0EE480A33F018F9B0EE409AF5
:10873000B0EE480A33F014F8B0EE40AAB0EE6A0A80
:1087400033F00CF9B0EE408AB0EE6A0A33F008F864
:1087500069EE894A29EE8A5A6AEE006A20EE497A61
:1087600068EE4A5A29EE086AE4EE886A28EE899A89
:10877000A5EE087A68EE807A28EE888A68EE8A8A02
:10878000F1EE699A84ED038AC4ED069A84ED079AA6
:10879000C4ED088ABDEC068BE4EE805AA5EE006AB3
:1087A000C4ED007AC4ED015A84ED026AC4ED046A96
:1087B00084ED057A10BD00BF38B5D1ED000A90ED0B
:1087C000000A04460D46FFF753FE08B9012038BDE4
:1087D000D5ED010A94ED010AFFF74AFE0028F5D015
:1087E000D5ED020A94ED020AFFF742FE80F0010087
:1087F000C0B238BDD0ED010A90ED021A90ED000A2A
:1088000088B0F1EE600AB1EE411AB1EE400A08B04C
:10881000704700BFD0ED010AD1ED016A90ED021A58
:1088200091ED027A90ED000AD1ED007A70EEA60A81
:1088300031EE071A30EE270A88B008B0704700BF43
:10884000D0ED010A90ED021AD0ED007AC0EE800A58
:1088500088B081EE001A87EE800A08B0704700BF2A
:1088600091ED005AD1ED015A91ED026AD0ED006A06
:1088700090ED017AD0ED027A76EE856A37EE257AB0
:1088800077EE867AC0ED006A80ED017AC0ED027A5B
:10889000704700BF90ED007AD0ED017A90ED026A4A
:1088A000C7EE006A87EE807AC6EE007AC0ED006AF5
:1088B00080ED017AC0ED027A704700BFD1ED017AF8
:1088C00090ED010AD0ED006A90ED027A20EE270AC1
:1088D000D1ED007AA6EEA70AD1ED027AA7EE270A1B
:1088E000704700BF90ED017AD1ED027A90ED025A07
:1088F00091ED016AD1ED005AD0ED006A26EE450AED
:1089000066EEE70A25EEC71AE5EE250A88B0A6EE60
:10891000261AA7EE270A08B0704700BFD0ED007AEC
:10892000F4EE677AF1EE10FA10D6D0ED017AF4EE9B
:10893000677AF1EE10FA09D6D0ED027AF4EE677A92
:10894000F1EE10FA6CBF0120002070470120704743
:1089500010B5044682B066297CD8DFE811F07900B2
:1089600059015101440139012A01240167001B0109
:10897000AD00A400C101B601EE0090003E02370236
:108980000601FF00A6019E018F0183016C016401B5
:10899000CD029000A400C1020902FC01ED01E20138
:1089A000D501CC01D600C600B6028B027C0269025A
:1089B00056024B02DD007B007B007B007B007B00CE
:1089C0007B007B007B007B007B007B007B007B00CF
:1089D0007B007B007B007B007B007B007B007B00BF
:1089E0007B007B007B007B007B007B007B007B00AF
:1089F0007B007B007B007B007B007B007B007B009F
:108A00007B007B007B007B007B007B007B007B008E
:108A10007B007B007B007B007B007B007B007B007E
:108A20007B007B007B007B0086008600D0ED007A17
:108A300090ED016ADFEDD76A36EE677A77EE867AD7
:108A400027EE267A67EEA67A84ED017AC4ED007AE5
:108A500002B010BD12F048FF40F211124FF4800135
:108A600002B0BDE8104012F02BBF01910DF024FDC3
:108A70000199224602B0BDE810400DF00DBD90ED09
:108A8000007AD0ED016AD0ED027AF1EE666AB1EEBD
:108A9000477AF1EE677AC4ED006A84ED017AC4ED9D
:108AA000027A02B010BDD0ED027A0368426802601B
:108AB000F1EE677A4360F2E7D0ED007A90ED017A4B
:108AC0009FEDB46A77EEC76A77EE877A94ED027A03
:108AD00066EE866A67EE867AB1EE477AC4ED016A81
:108AE000C4ED007A84ED027AB2E790ED017AD0ED20
:108AF000007A8368B1EE477AF1EE677A80ED027A08
:108B00002360C4ED017A02B010BD81680268436839
:108B10004160A26023609BE7D0ED017A90ED026A8C
:108B2000DFED9C6A36EE677A77EE867A27EE267A54
:108B300067EEA67A84ED027AE3E7D0ED007A90ED55
:108B4000017ADFED945A9FED926A77EE676A77EECD
:108B5000877A94ED027A66EEA56ABBE7826841687F
:108B6000036881600260636072E790ED026AD0ED95
:108B7000007ADFED886A436837EE867A77EEC67A48
:108B800067EEA67A27EE267AA360C4ED017A84ED1B
:108B9000007A5DE790ED017AD0ED027AB1EE477A86
:108BA000F1EE677A79E7D0ED007A4368F1EE677A03
:108BB000A6E7D0ED006AD0ED017A9FED756A37EE39
:108BC000A67A77EEE67ADFED736A27EE067A39E762
:108BD00090ED007AD0ED017AB1EE477AF1EE677A46
:108BE00084ED007A8DE7D0ED016AD0ED007A9FED3B
:108BF000696A37EEE67A77EEA67ADFED656AE4E732
:108C0000D0ED017A0368F1EE677AC4ED007AAAE745
:108C1000D0ED007A90ED016ADFED5E6A37EE867A7C
:108C200077EEC67A0CE7D0ED007A8368F1EE677ACA
:108C3000C4ED027A6EE7D0ED026AD0ED007ADFED86
:108C4000555A9FED536A37EEA67A77EEE67AD0ED65
:108C5000016A67EEA57AF1EE666A27EE067AC4ED40
:108C6000026A92E790ED017AD0ED027A0368B1EEE4
:108C7000477AF1EE677A80ED027AC6E7D0ED026AB4
:108C8000D0ED007A9FED436A37EEE67A77EEA67A6A
:108C9000D0ED016A67EE867ADDE7D0ED017A836870
:108CA000F1EE677AC0ED027A5DE7D0ED026AD0EDB1
:108CB000007A9FED386A436837EEE67A77EEA67A57
:108CC000DFED336A67EE867A5CE790ED007AD0EDEF
:108CD000027AB1EE477AF1EE677A84ED007ADEE649
:108CE000D0ED017A90ED007A9FED2A6A77EE876ADF
:108CF00077EEC77AEAE6D0ED017A83680268F1EE92
:108D0000677AC0ED017A04E790ED027AD0ED017A3E
:108D10000368B1EE477AF1EE677A80ED017AA360DD
:108D200094E6D0ED007A436882684260F1EE677A9B
:108D3000C0ED007A83608BE6D0ED026AD0ED017A57
:108D400090ED007AF1EE666AB1EE477AF1EE677A5D
:108D5000C0ED016AC1E7D0ED017A90ED007A836839
:108D60004360F1EE677AB1EE477A84ED027A6DE600
:108D7000D0ED016AD0ED027A90ED007AF1EE666AEC
:108D8000F1EE677AB1EE477AC4ED016AEDE700BF14
:108D9000F30435BFF304353F81177E3FA296F93DBA
:108DA000A296F9BDF304353FDB26B93E46D0BC3E62
:108DB000C9355BBFCF78123E4F0DAABEC6AC6EBFA1
:108DC0004D1F6BBFF184CABEF63BCC23D0ED027AB7
:108DD00043688360F1EE677A93E6D0ED007A90ED18
:108DE000017A5FED155A1FED156A77EE876A77EE07
:108DF000C77AAEE6D0ED017A90ED026A5FED1B6AAC
:108E000037EE867A77EEC67A90E6D0ED027A1FEDDD
:108E10001E6A1FED1E7AD0ED006A5FED1F5A27EE25
:108E2000877A67EE867AA6EE867AE6EEA57A54E72A
:108E3000D0ED016AD0ED007A1FED266A36EEA77AF2
:108E400077EEE67AD0ED026A27EE067A67EE867A4A
:108E5000F1EE666A98E7D0ED007A90ED026A5FED78
:108E60002F6A37EE867A77EEC67A27EE267A67EE95
:108E7000A67A7AE7D0ED017A5FED355A5FED356A73
:108E80001FED357A90ED006A5FED364A1FED365AD8
:108E900067EEA66A27EE877A67EEA57A5FED395A04
:108EA000E6EE246AA6EE057AE6EE257A5FED3C4A08
:108EB00090ED026A1FED3D5A5FED3D5AE6EE246AE1
:108EC000A6EE057AE6EE257AE5E590ED027AD0ED9C
:108ED000007A43688360B1EE477AF1EE677A7FE605
:108EE00090ED027AD0ED007A4368B1EE477AF1EE68
:108EF000677A80ED017A9BE6D0ED027A0368F1EEA5
:108F0000677A0CE7D0ED027AD0ED016A90ED007A35
:108F100067EEA77AE6EEA67AE7EE077AF5EE407AF4
:108F2000F1EE10FA02D4B1EEE70A7047B0EE670A2C
:108F300032F08EBE13B5B0F930308B4204460AD9F8
:108F4000ADF8061030300DF1060102F049FF09F0CE
:108F500025FFC4F8E00002B010BD000010B50D4BB5
:108F60001B685B6D93F89C30044613B10379012BA9
:108F70000DD020460021FFF7DDFF4FF6FF7323875A
:108F8000A4F854300023A380A371012010BD002059
:108F9000FCE700BFFC2A00205E282ED8512805D807
:108FA000A0F110030F2B23D90020704752380C2852
:108FB000FAD801A353F820F0ED8F0008A98F00081C
:108FC000ED8F0008ED8F0008A98F0008A98F000819
:108FD000A98F0008A98F0008A98F0008A98F000891
:108FE000ED8F0008A98F0008ED8F00080120704761
:108FF000012303FA00F0074B07E0B33880B21628CC
:10900000D2D8012303FA00F0034B184214BF012009
:109010000020704700006FC0011440002DE9FF419F
:1090200006460D461446404940F25B32684608F059
:1090300057F8B6F8E830AB4273D962881046FFF7AC
:10904000ABFF00284ED0217AC1F34000C1F30003EA
:1090500043EA8003C1F3800043EAC003C1F3C000C8
:1090600043EA0013C1F3001143EA4113217E890151
:1090700001F040010B438DF80430237B8DF805305F
:10908000637B8DF80630A37B8DF80730236902934C
:1090900063690393C5EB0515ADB2291D05F10508FC
:1090A000EF1DFF2A89B21FFA88F8BFB221D81F48E6
:1090B000D2B207F0A1FFA2881C48414607F0A8FFE2
:1090C0000C2301AA3946194807F046FF09F066FE4D
:1090D0000124C6F8E000684608F024F8204604B0F1
:1090E000BDE8F081A068E16801AB03C320691860A6
:1090F000D0E74AF2CE63D31A5A425A410B4807F0DE
:109100007BFF62880948414607F082FFA288074832
:10911000394607F07DFF05F109010A2301AA89B24A
:10912000D1E70024D7E700BFC4300020DC300020A6
:1091300073B50A460E46018E0446FFF76FFF0546DB
:1091400058B1238E338020460DF1060130F8303FB0
:109150000133ADF8063002F043FE284602B070BD80
:10916000B0F93030994201D2FFF758BF0020704764
:10917000C38B552B4BD04CD8162B46D8142B4AD822
:10918000102B14BFFF23F723D0ED007AF4EE677A9B
:10919000F1EE10FA41D69FED257AF0EEE77AF4EE83
:1091A000477AF1EE10FA38DCD0ED017AF4EE677A06
:1091B000F1EE10FA33D6F0EEE77AF4EE477AF1EEFC
:1091C00010FA2CDC5A07D0ED027A04D5F4EE677A57
:1091D000F1EE10FA25D6F0EEE77AF4EE477AF1EEEA
:1091E00010FA1EDC1B07D0ED037A04D5F4EE677A83
:1091F000F1EE10FA17D6F0EEE77AF4EE477AF1EED8
:1092000010FAD4BF002009207047542BB9E7F3238C
:10921000BAE7FF23B8E7F723B6E706207047072031
:109220007047082070470920704700BFFFFF7F7F0D
:10923000F0B5838B0B8087B0C38B4B8002AE0546A5
:1092400030460C460CF0D2FB96E80F0004F10807FC
:1092500087E80F002846FFF78BFF0646002840F0FE
:1092600044846388DF2B00F22681B02B0AD81F2BA1
:1092700040F28C805E2B00F2CF80512B66D8032603
:1092800000F033BCB13B2E2BF9D801A252F823F0E9
:109290000D950008DF970008159600087F920008DA
:1092A0003B990008FB9700082198000841980008A6
:1092B0007F9200087F9200087F9200087F9200084A
:1092C0002D9400087F9200082D9400087F920008DA
:1092D00015960008159600087F9200087F920008F6
:1092E0007F9200087F9200087F9200087F9200081A
:1092F0001596000873980008BB9800087F92000834
:10930000FD980008099900081596000815960008B0
:109310007F920008159600083B99000815960008F2
:10932000CB9900087F920008159600081596000852
:109330000D9A00081D9900087F9200087F9200088E
:109340007F9200080D9A00086D990008523B0C2B83
:1093500095D801A252F823F015960008CB99000881
:109360002D940008599900087F9200087F92000808
:109370007F9200087F9200087F9200087F92000889
:10938000159600084B970008BD9900081F2B3FF663
:1093900076AF01A252F823F0059B0008059B000858
:1093A0007F9200087F9200087F9200087F92000859
:1093B0007F9200087F9200087F9200087F92000849
:1093C0007F9200087F9200087F9200087F92000839
:1093D0007F9200087F9200081596000823960008E7
:1093E00051960008F39600082D9400080197000894
:1093F000159600087F9200087F9200087F9200086F
:109400007F9200087F9200087F9200087F920008F8
:109410001596000833970008722B05D0732B00F0C7
:10942000C381702B7FF42BAF2B68A3606088FFF79C
:10943000B3FD002800F05983286913F0E9FB0028E8
:1094400000F06283686913F0F7FB002800F05E8388
:10945000D5ED067AF4EE677AF1EE10FA80F15883D2
:109460009FEDC67AF0EEE77AF4EEC77AF1EE10FAE5
:1094700080F24E832B6923616B696361D5ED067AB7
:109480009FEDC87A67EE877AFDEEE77AC4ED037A3E
:1094900095F822300B2B00F23D83DFE813F0220316
:1094A0003B03220329033B03220329033B033B0322
:1094B0003B032D032D0340F2D172934200F0AA80AA
:1094C00033D8B3F5167F00F0828112D840F2132210
:1094D000934203D0B3F5057F7FF4D1AED5ED007A8A
:1094E000FCEEE77A17EE903A23726B68C4F8093005
:1094F0009CE7B3F57A7F00F0B782B3F5FA6F00F01E
:10950000D78240F2592293427FF4B9AED5ED007A6A
:10951000FCEEE77A17EE903A2381D5ED017AFDEE65
:10952000E77A17EE903A638180E74AF268629342E5
:1095300000F0578213D840F6C512934208D040F687
:10954000B832934204D040F6C41293427FF497AEEF
:10955000D5ED007AFCEEE77A17EE903A76E04AF223
:10956000CE62934200F05F824AF2CF6293427FF470
:1095700086AE9FED831ADFED830A95ED000A40F277
:109580001150FFF70DF8BCEEC00A9FED7F7A10EE88
:10959000103A2381D5ED017AF0EEE76AF4EEC76A5E
:1095A000F1EE10FA97BFFDEEE77A334617EE903AE8
:1095B0001BB26381D5ED027A9FED747AF0EEE76A13
:1095C000F4EEC76AF1EE10FA97BFFDEEE77A0023DA
:1095D000CDED017A9DF904302373D5ED037A9FED2B
:1095E0006C7AF4EEC77AF1EE10FAC0F23B829FED8E
:1095F000697AF4EEC77AF1EE10FA00F23382FDEEEA
:10960000E77A17EE903A1BB2A4F80D302B69A4F854
:109610000F300BE7D5ED007AFCEEE77A17EE903AC3
:10962000A2E1D5ED027AF0EEE77AFCEEE77A17EEEA
:10963000903AA380D5ED027AF5EEC07AF1EE10FAF9
:109640004CBF01220022237A62F341032372EDE62C
:10965000D5ED007A9FED507AF4EE477AF1EE10FAEC
:10966000C8BFF0EE477AFCEEE77A17EE903A9AB26E
:10967000A280D5ED027AF0EEE77AF4EEC77AF1EE49
:1096800010FA22D8FCEEE77ACDED017A9DF804308D
:1096900042EA0323A380D5ED027A237AF5EEC07A5D
:1096A000F1EE10FA4CBF0122002262F34103237253
:1096B000D5ED037AF5EEC07AF1EE10FACCBF0122B7
:1096C0000022DBB262F30413C0E7DFED346A67EE19
:1096D000A67A0121F4EE477AF1EE10FAC8BFF0EE57
:1096E000477AFCEEE77A2176CDED017A9DF80430D9
:1096F000CEE7D5ED007AFCEEE77A17EE903AC9E7AF
:10970000D5ED007AFCEEE77A17EE903AA380D5ED1E
:10971000037AF4EE677AF1EE10FABFF587AE9FEDAB
:10972000207AF4EEC77AF1EE10FA94BF01220022FB
:1097300089E7D5ED017AF0EEE77AFCEEE77A17EEED
:10974000903AA380D5ED017AA7E72B68A360D5ED09
:10975000017AFDEEE77A17EE903A2373D5ED027A9F
:10976000FDEEE77A17EE903A6373D5ED037AFDEEDE
:10977000E77A17EE903AA37358E600BF001CA247A1
:1097800000FF7F4700000000000034430000B442A7
:10979000000034C30000B44300007F43CDCCCC3D77
:1097A000000000B40000C8422B68A3606B68E3604F
:1097B000D5ED027AFDEEE77A17EE903A2374D5EDF7
:1097C000037AFCEEE77A17EE903A63742EE6D5ED55
:1097D000007AFCEEE77A17EE903A238126E6D5ED83
:1097E000007AFCEEE77A17EE903A23726B68C4F8C1
:1097F0000930AB68C4F80D3018E6D5ED007AFCEE00
:10980000E77A17EE903A2372D5ED017AFDEEE77A0A
:1098100017EE903AA4F80930AB68C4F80B3005E6AF
:10982000D5ED007AFCEEE77A17EE903A2372D5ED8B
:10983000017AFCEEE77A17EE903AA4F80930F5E5E4
:10984000D5ED007AFCEEE77A17EE903A2372D5ED6B
:10985000017AFCEEE77A17EE903AA4F80930D5EDDC
:10986000027AFDEEE77A17EE903AA4F80B30EB6837
:10987000C0E7D5ED007AFCEEE77A17EE903A237256
:10988000D5ED017AFCEEE77A17EE903AA4F80930AC
:10989000D5ED027AFCEEE77A17EE903AE372D5ED59
:1098A000037AFCEEE77A17EE903AA3812B69A37353
:1098B0006B69E373AB692361B8E5D5ED007AFCEE23
:1098C000E77A17EE903A2372D5ED017AFCEEE77A4B
:1098D00017EE903A6372D5ED027AFDEEE77A17EE55
:1098E000903AA372D5ED037AFCEEE77A17EE903A40
:1098F000E3722B6923736B69637397E52B68A3602D
:109900006B68E360AB68D6E72B68A360D5ED027A9D
:10991000FCEEE77A17EE903A237387E5D5ED007AEF
:10992000FCEEE77A17EE903A2381D5ED017AFCEE52
:10993000E77A17EE903AA37278E5D5ED007AFCEE5F
:10994000E77A17EE903A2372D5ED017AFCEEE77ACA
:1099500017EE903A637269E5D5ED007AFCEEE77A8E
:10996000CDED017A9DF80430A3805FE5D5ED007A56
:109970001FED747AF5EEC07AF1EE10FACCBF012338
:1099800000232372D5ED017AF5EEC07AF1EE10FADC
:10999000CCBF012300236372D5ED027A67EE877A8C
:1099A000FCEEE77A17EE903A6381D5ED037AFCEE90
:1099B000E77A17EE903A03F00103ADE7D5ED007AB0
:1099C0001FED887A67EE877A26E62B68A3606B68BE
:1099D000E360D5ED027AFCEEE77A17EE903A237455
:1099E00024E5D5ED007AFCEEE77A17EE903A237283
:1099F000D5ED017AFCEEE77A17EE903A6372AB6828
:109A0000C4F80A30EB68C4F80E300FE5D5ED007AE3
:109A1000FCEEE77A17EE903AA3806B68A360AB6820
:109A2000E360EB6847E7D5ED007AFCEEE77A04F1F6
:109A30000A0017EE903A2372D5ED017AFCEEE77A30
:109A400017EE903A637295ED020A0CF01DFA95ED4F
:109A5000030A04F10C000CF017FA2B69E3816B691F
:109A60002382E3E40023CFE5D5ED007AFDEEE77A2B
:109A700017EE903A2372D5ED017AFDEEE77A17EEF4
:109A8000903AA4F80930D5ED027AFDEEE77A17EEA8
:109A9000903AE372D5ED037AFDEEE77A17EE903A4D
:109AA00023732B696373D5ED067AFCEEE77A60E6E3
:109AB000D5ED007AFCEEE77A17EE903A23726B68E8
:109AC000C4F80930D5ED027AFCEEE77A17EE903A49
:109AD000A4F80D30D5ED037AFCEEE77A17EE903A54
